:100000000C94C6000C94FF050C94D8050C94B10513
:100010000C948A050C94EE000C94EE000C9463058D
:100020000C94EE000C94EE000C9426060C949506AD
:100030000C94EE000C94EE000C94EE000C94EE0088
:100040000C94EE000C94EE000C94EE000C94EE0078
:100050000C94EE000C94EE000C94EE000C94190538
:100060000C94EE000C94EE000C94EE000C94EE0058
:100070000C94EE000C94EE000C94EE000C94EE0048
:100080000C94EE000C94EE000C94EE000C94EE0038
:100090000C94EE000C94EE000C94EE000C94EE0028
:1000A0000C94EE000C94EE000C94EE00080B000291
:1000B0000202000009040000010202000005240001
:1000C0001001052401010104240206052406000193
:1000D0000705810310004009040100020A00000026
:1000E00007050202400000070583024000000403E8
:1000F000090412010002EF02014041233780000190
:100100000102030141726475696E6F204C4C43001B
:1001100041726475696E6F204D6963726F005E0194
:10012000011F01030301008A02010A01020201000A
:1001300064001E47040B0906007C0101060103034D
:100140000100F401060E0102020100C201170101C3
:10015000020201019600023E0106060100C80003EA
:10016000820710031000C800820710071003016DFA
:1001700001120103010103010E0124010102020128
:1001800001400124010102020101C70811241FBE20
:10019000CFEFDAE0DEBFCDBF11E0A0E0B1E0E2EFEB
:1001A000F4E102C005900D92A438B107D9F722E01E
:1001B000A4E8B1E001C01D92AA39B207E1F710E04E
:1001C000C6ECD0E004C02197FE010E94710AC53C34
:1001D000D107C9F70E9404090C94770A0C94000017
:1001E000FC0180913602882311F13FB7F89482E038
:1001F0008093E9002091F200822F90E018161906F2
:1002000014F481E090E0882339F0289A44E6409382
:1002100035024091F1004083222339F02091F20011
:10022000211103C02BE62093E8003FBF08958FEF14
:100230009FEF08952FB7F89483E08093E9009091A1
:10024000E800892F807295FF04C09091F20080E44D
:10025000891B2FBF089580912D0281110DC082E06E
:100260008093290284E080932A0210922C0210923B
:100270002B0281E080932D0289E292E008953FB73E
:10028000F8948091250290912602A0912702B091C6
:10029000280226B5A89B05C02F3F19F00196A11D85
:1002A000B11D3FBFBA2FA92F982F8827BC01CD01C0
:1002B000620F711D811D911D42E0660F771F881F1F
:1002C000991F4A95D1F708958F929F92AF92BF924E
:1002D000CF92DF92EF92FF924B015C010E943F01AF
:1002E0006B017C010E943F016C197D098E099F09F9
:1002F000683E734081059105A8F321E0821A9108B8
:10030000A108B10888EEC80E83E0D81EE11CF11CDC
:1003100081149104A104B10429F7FF90EF90DF90BC
:10032000CF90BF90AF909F908F9008950895409187
:1003300014025091150220911202309113024217BB
:100340005307B4F49091E8009570E1F39091E800C0
:1003500092FD19C08093F1008091140290911502D2
:1003600001968F739927892B19F48EEF8093E800FB
:10037000809114029091150201969093150280933A
:10038000140281E0089580E00895EF92FF920F93A8
:100390001F93CF93DF93F82E192FE62E042F81E0C1
:1003A000860F880F0E94970183E00E949701CF2D4E
:1003B000D12FEC0EFD2EF11CCE15DF05B9F007FF95
:1003C00013C0FE0184910E949701182F80E00E94C3
:1003D0009701812321968111EFCFDF91CF911F915A
:1003E0000F91FF90EF9008958881EDCF81E0F5CFD8
:1003F000DF92EF92FF920F931F93CF93DF93D82E4C
:100400008A01EB017B01E40EF51ECE15DF0559F0E4
:10041000D7FE12C0FE0184910E949701219681119E
:10042000F4CF0FEF1FEFC801DF91CF911F910F9114
:10043000FF90EF90DF9008958881EECF0F931F9388
:10044000CF93DF931F92CDB7DEB782E0898342E47A
:1004500050E06CEA70E080E80E94F8010E942B01F5
:10046000DC0112960D911C910115110589F0D8013E
:10047000ED91FC910280F381E02DBE016F5F7F4F13
:10048000C801099597FD04C0F80100851185ECCFDE
:1004900089810F90DF91CF911F910F910895615045
:1004A00030F02091F100FC0120830196F8CF289ACA
:1004B00084E68093350208958F929F92AF92BF9207
:1004C000CF92DF92EF92FF920F931F93CF93DF9320
:1004D0006C017B018A0180910B01882309F45CC0C7
:1004E00080913602882309F457C08091180280FF5A
:1004F00005C08091E00082608093E000E801B12CAB
:100500008AEFA82E93E0892E2AE3922E209711F4E9
:10051000BB20D9F10E941A0181110AC0AA94AA2015
:10052000D9F161E070E080E090E00E946401EECFDC
:100530008C171D0611F00CF08C2F9FB7F894809249
:10054000E9002091E80025FD02C09FBFDFCF282FE2
:1005500030E0C21BD30BF701815020F04191409352
:10056000F100FACFE20EF31EBB2021F09092E800DA
:10057000B12CEBCF8091E80085FDE7CF9092E800A9
:10058000BB24B394209709F3F3CF5D9A84E680935C
:100590001702101611063CF081E090E0F6019383FB
:1005A000828310E000E0C801DF91CF911F910F918D
:1005B000FF90EF90DF90CF90BF90AF909F908F9083
:1005C0000895CF93DF931F92CDB7DEB76983DC0127
:1005D000ED91FC910280F381E02D41E050E0BE01FD
:1005E0006F5F7F4F09950F90DF91CF91089583E062
:1005F0008093E9008091F200882319F08AE38093C8
:10060000E80008950E941A0190E00895CF93DF93C7
:100610001F92CDB7DEB7FC018485958597FD08C094
:100620002FEF3FEF358724870F90DF91CF9108950B
:10063000CE0101960E94F000019719F4898190E0A3
:10064000F3CF8FEF9FEFF0CF0F931F93CF93DF93F5
:100650001F92CDB7DEB78C01FC018485958597FF8D
:100660000BC0CE0101960E94F000019771F48981C0
:1006700090E0F80195878487F801848595850F902F
:10068000DF91CF911F910F9108958FEF9FEFF1CFE1
:10069000FC018485958597FD0BC09FB7F89482E097
:1006A0008093E9008091F2009FBF90E00196089549
:1006B0009FB7F89482E08093E9008091F2009FBF99
:1006C00090E008952F923F924F925F926F927F92A7
:1006D0008F929F92AF92BF92CF92DF92EF92FF9252
:1006E0000F931F93CF93DF93CDB7DEB765970FB608
:1006F000F894DEBF0FBECDBF0E943F016B017C01AD
:1007000080910E0290910F022601481A590A4DEC71
:10071000441640E1540608F4E0C080910C02909128
:100720000D02009789F02091860130918701120116
:10073000221A330A910137FE03C031952195310900
:10074000283C31050CF0C5C0019690930D028093B2
:100750000C02029709F0BDC09EE1692E91E0792E4E
:1007600001E010E020908401309085013B862A86CC
:1007700049E050E0B301CE0101960E94320A8B811C
:100780006C81681708F4682F70E080918601909161
:1007900087010E943B0A9B0140911601509117016D
:1007A000649FC001659F900D749F900D112464E6B5
:1007B00070E00E943B0A8985A1E0B0E0882311F037
:1007C000A2E0B0E08D81829FA001839F500D112493
:1007D0005D874C878E81829F1001839F300C11248E
:1007E0003F862E868F81829FA001839F500D11240A
:1007F000598B488B8885829F1001839F300C112470
:100800003B8A2A8AFD01EE0FFF1FEA57FE4F812C1B
:10081000912C54014A855B85415051095D8B4C8B6D
:100820008C899D89A817B90708F040C0880C991CCD
:10083000AA1CBB1C80819181AC012C843D8442198F
:10084000530957FF03C05195419551094617570762
:1008500070F4428153812E843F844219530957FF1B
:1008600003C051954195510946175707E0F0488953
:100870005989841B950B97FF03C091958195910928
:1008800086179707C8F4828193812A883B8882194A
:10089000930997FF03C09195819591098617970752
:1008A00058F4689480F812963496BACF4A855B85DE
:1008B0004830510508F053C00F5F1F4F59E0650ED7
:1008C000711C0D30110509F04DCF10920D021092E0
:1008D0000C02109285011092840180918401909104
:1008E00085018334910540F01092850110928401B6
:1008F00010920D0210920C0280918401909185015A
:100900009C012F5F3F4F3093850120938401880F16
:10091000991FFC01EA57FE4F51824082C0920E029D
:10092000D0920F02E0921002F092110265960FB67B
:10093000F894DEBF0FBECDBFDF91CF911F910F9115
:10094000FF90EF90DF90CF90BF90AF909F908F90EF
:100950007F906F905F904F903F902F90089580927E
:10096000870290928802A0928902B0928A022C8813
:100970003D883694279430921F0220921E023093B5
:100980001D0220931C0210931B0200931A029DCF9C
:10099000FC0101900020E9F73197AF01481B590B8A
:1009A000BC0187E392E00C945C028F929F92AF921D
:1009B000BF920F931F93CF93DF93CDB7DEB7A1976D
:1009C0000FB6F894DEBF0FBECDBF19A2423008F4B7
:1009D0004AE08E010F5D1F4F842E912CB12CA12C6B
:1009E000A50194010E944F0AE62FB901CA01EA301D
:1009F000F4F4E05DD801EE938D01232B242B252BFD
:100A000079F790E080E0109719F0CD010E94C804BA
:100A1000A1960FB6F894DEBF0FBECDBFDF91CF9188
:100A20001F910F91BF90AF909F908F900895E95CB8
:100A3000E1CF1F920F920FB60F9211242F933F9385
:100A40008F939F93AF93BF93809121029091220245
:100A5000A0912302B09124023091200223E0230FC1
:100A60002D3758F50196A11DB11D209320028093CA
:100A7000210290932202A0932302B093240280913A
:100A8000250290912602A0912702B091280201969A
:100A9000A11DB11D8093250290932602A0932702E9
:100AA000B0932802BF91AF919F918F913F912F9169
:100AB0000F900FBE0F901F90189526E8230F0296F7
:100AC000A11DB11DD2CF1F920F920FB60F9211240C
:100AD0002F933F934F935F936F937F938F939F9346
:100AE000AF93BF93EF93FF93E0911401F091150141
:100AF0000995FF91EF91BF91AF919F918F917F9158
:100B00006F915F914F913F912F910F900FBE0F907A
:100B10001F9018951F920F920FB60F9211242F93CA
:100B20003F934F935F936F937F938F939F93AF9375
:100B3000BF93EF93FF93E0911201F0911301099598
:100B4000FF91EF91BF91AF919F918F917F916F91A5
:100B50005F914F913F912F910F900FBE0F901F907B
:100B600018951F920F920FB60F9211242F933F9357
:100B70004F935F936F937F938F939F93AF93BF93A5
:100B8000EF93FF93E0911001F09111010995FF910E
:100B9000EF91BF91AF919F918F917F916F915F91F5
:100BA0004F913F912F910F900FBE0F901F9018956E
:100BB0001F920F920FB60F9211242F933F934F93D2
:100BC0005F936F937F938F939F93AF93BF93EF93B5
:100BD000FF93E0910E01F0910F010995FF91EF91C4
:100BE000BF91AF919F918F917F916F915F914F9145
:100BF0003F912F910F900FBE0F901F9018951F924D
:100C00000F920FB60F9211242F933F934F935F9340
:100C10006F937F938F939F93AF93BF93EF93FF93C4
:100C2000E0910C01F0910D010995FF91EF91BF91B9
:100C3000AF919F918F917F916F915F914F913F9174
:100C40002F910F900FBE0F901F9018951F920F922B
:100C50000FB60F9211248F939F938091E100909192
:100C6000E100937F9093E10083FF0FC01092E900B1
:100C700091E09093EB001092EC0092E39093ED00E2
:100C80001092360298E09093F00082FF22C093E029
:100C90009093E9009091F200992319F09AE39093D0
:100CA000E80090911702992341F09091170291501A
:100CB00090931702911101C05D989091350299238C
:100CC00041F090913502915090933502911101C0FD
:100CD000289884FF18C08091E2008E7E8160809306
:100CE000E2008091E1008F7E8093E1008091180204
:100CF0008E7E8061809318029F918F910F900FBE1E
:100D00000F901F90189580FFF7CF8091E2008E7EA4
:100D100080618093E2008091E1008E7E8093E1000B
:100D2000809118028E7E8160E5CF1F920F920FB6E0
:100D30000F921124CF92DF92EF92FF920F931F93A5
:100D40002F933F934F935F936F937F938F939F93D3
:100D5000AF93BF93EF93FF93CF93DF93CDB7DEB7FE
:100D60006C97DEBFCDBF1092E9008091E80083FF51
:100D700025C068E0CE0145960E944F0282EF809325
:100D8000E8008D8987FF39C09091E80090FFFCCF83
:100D9000982F907609F034C19E894F89588D2F89FC
:100DA000F88C911131C0803861F5809119028093DF
:100DB000F1001092F1008EEF8093E8006C960FB670
:100DC000F894DEBF0FBECDBFDF91CF91FF91EF91C1
:100DD000BF91AF919F918F917F916F915F914F9153
:100DE0003F912F911F910F91FF90EF90DF90CF9047
:100DF0000F900FBE0F901F9018959EEF9093E800F4
:100E0000C7CF1092F100D5CF913059F48111D3CFD3
:100E10004130510581F6809119028D7F809319022E
:100E2000CACF933049F48111C6CF4130510519F62C
:100E3000809119028260F2CF953041F48091E800F0
:100E400080FFFCCF20682093E300B5CF963009F0F7
:100E5000A9C00B8D1C8D22E01092E90010921502A2
:100E600010921402F2122EC010921302109212026B
:100E70000E941E021F8299E09983FA8291E09E836C
:100E800090EA98879AEF9987209114023091150281
:100E9000275F3F4F3C832B838D831092E900109294
:100EA000150210921402109313020093120249E0EB
:100EB00050E0BE016F5F7F4F80E00E94F8010E940A
:100EC0001E0279CF10931302009312020E942B018D
:100ED000DC0112960D911C910115110509F451C107
:100EE000D801ED91FC910480F581E02DBE016B5E8F
:100EF0007F4FC8010995009709F03EC1F8010085B0
:100F00001185EACFF3E0FF120EC08F89882309F420
:100F100040C0823061F440E86DE080E191E00E94E1
:100F2000C501811148CF81E28093EB0047CF81302A
:100F300029F440E86BE084E091E0F1CF833099F749
:100F40000E942B01DC011296ED90FC908E010F5F48
:100F50001F4F6801E114F10479F0D701ED91FC9184
:100F60000680F781E02DB801C7010995080F111D12
:100F7000F701E084F184EECFD8011C92F6010190D4
:100F80000020E9F73197BF016C197D0940E0C601E7
:100F9000C6CF6EEE70E0FB01449150E080E80E9405
:100FA000F80109CF973009F4BECF983021F481E0E1
:100FB0008093F10000CF993009F0FDCE837009F0E5
:100FC000B2CFE9E1F1E081E031E096E32191222323
:100FD00071F08093E9003093EB00DF0111972C91C1
:100FE0002093EC009093ED008F5F873079F78EE7C8
:100FF0008093EA001092EA008F8980933602DBCE5C
:101000008B8D9C8D1092E9001092150210921402A3
:101010009093130280931202898D811192C08E8960
:101020009D89913A49F4813209F07DCF47E050E043
:1010300064E071E080E0B3CF913209F074CF833285
:1010400069F48F89988DB0E0A0E0809300019093BF
:101050000101A0930201B0930301ADCE803269F487
:101060008091E80082FFFCCF67E084E091E00E947D
:101070004F028BEF8093E8009ECE823209F09BCE28
:101080008F8980930B01EEEFFFE7859194918B3F61
:101090009C4D51F1E0E0F8E0809104019091050150
:1010A000A0910601B0910701803B9440A105B105D4
:1010B000F1F480910B0180FD1AC0EE3F8AE0F80741
:1010C00089F587E797E7918380838091600080931B
:1010D000160288E19BE00FB6F894A8958093600013
:1010E0000FBE9093600067CEEEEFFAE0D5CF80811F
:1010F00091818737974709F05ECEA895809160006F
:101100008861809360008091160280936000EE3FBA
:101110002AE0F20789F08091FE0A9091FF0A9183FC
:10112000808349CE808191818737980751F29093CF
:10113000FF0A8093FE0AC5CF1092FF0A1092FE0AA2
:101140003ACE0E942B01DC0112960D911C910115E3
:10115000110509F4E8CED801ED91FC910190F081E0
:10116000E02DBE016B5E7F4FC8010995811123CE32
:10117000F80100851185EBCF181619060CF41BCE6B
:10118000D2CEF1E0FF12BECE62EF70E004CF0F933B
:101190001F93CF93DF93E7E3F2E01382128288EE8E
:1011A00093E0A0E0B0E084839583A683B78383E2D5
:1011B00091E0918380830FEF1FEF15870487CBE8C1
:1011C000D2E01B830A838AE090E09D838C8349E010
:1011D00050E06EE171E081E992E00E94320A1983E9
:1011E00008838CE390E0909317018093160110928E
:1011F0008702109288021092890210928A02DF916F
:10120000CF911F910F910895789484B5826084BD29
:1012100084B5816084BD85B5826085BD85B58160FA
:1012200085BD80916E00816080936E001092810078
:101230008091810082608093810080918100816033
:1012400080938100809180008160809380008091F4
:1012500091008260809391008091910081608093E1
:101260009100809190008160809390008091C100F6
:1012700084608093C1008091C10082608093C1002E
:101280008091C10081608093C1008091C300816022
:101290008093C3008091C00082608093C0008091E1
:1012A000C20081608093C20080917A008460809344
:1012B0007A0080917A00826080937A0080917A002F
:1012C000816080937A0080917A00806880937A00B0
:1012D0001092360210921902109218028091D700D3
:1012E00081608093D70080EA8093D80089B58061BF
:1012F00089BD89B5826089BD09B400FEFDCF61E07A
:1013000070E080E090E00E9464018091D8008F7CC2
:1013100080618093D8008091E000807F8093E0001E
:101320008091E1008E7E8093E1008DE08093E20069
:10133000559A209A5D9828988FEF9FEF90934402DA
:101340008093430260ED77E080E090E00E946401CA
:1013500081E391E00E94C80484E391E00E94C80404
:1013600081E391E00E94C80483E090E090938C02B6
:1013700080938B0210928702109288021092890249
:1013800010928A0210921F0210921E0282E693E0CF
:101390009093130180931201809169008F73806490
:1013A00080936900EB9A86E491E00E94C80481E38F
:1013B00091E00E94C804C0E0D0E080918702909143
:1013C0008802A0918902B0918A02892B8A2B8B2BEB
:1013D00009F442C085E591E00E94C804609187024B
:1013E000709188028091890290918A024AE00E945D
:1013F000D5048DE591E00E94C80460911E027091B1
:101400001F0290E080E04AE00E94D5048CE691E063
:101410000E94C80460911C0270911D0290E080E05F
:101420004AE00E94D50486E791E00E94C8046091DA
:101430001A0270911B0290E080E04AE00E94D504FD
:1014400081E391E00E94C804109287021092880202
:101450001092890210928A02209709F4AECF0E945E
:101460000000ABCFFB01DC0102C005900D924150A2
:101470005040D8F70895AA1BBB1B51E107C0AA1F13
:10148000BB1FA617B70710F0A61BB70B881F991F25
:101490005A95A9F780959095BC01CD010895A1E2D8
:1014A0001A2EAA1BBB1BFD010DC0AA1FBB1FEE1FDE
:1014B000FF1FA217B307E407F50720F0A21BB30B29
:1014C000E40BF50B661F771F881F991F1A9469F7A5
:1014D00060957095809590959B01AC01BD01CF0101
:1014E0000895EE0FFF1F0590F491E02D0994F894F4
:0214F000FFCF2C
:1014F200FFFFFFFF00E100000000000096019601DF
:101502009601960196013C0000C180810000000016
:10151200000000E1025C020203F702480306032412
:10152200030D0A005374617274696E6720736574E7
:1015320075702E2E2E0046696E697368656420737D
:10154200657475700076616C75653A20002C2062B6
:101552006974206C656E6774683A20002C2064659B
:101562006C61793A20002C2070726F746F636F6C1B
:041572003A2000001B
:00000001FF
